:100000000C9446000C9465000C9465000C946500FB
:100010000C9465000C9465000C9465000C946500CC
:100020000C9465000C9465000C9465000C946500BC
:100030000C94BF010C9465000C9465000C94650051
:100040000C9465000C9465000C9465000C9465009C
:100050000C9465000C9465000C9465000C9465008C
:100060000C9465000C9465000C9465000C9465007C
:100070000C9465000C9465000C9465000C9465006C
:100080000C9465000C9465000C94650011241FBE4F
:10009000CFEFD0E1DEBFCDBF12E0A0E0B1E0EEE1F6
:1000A000F4E100E00BBF02C007900D92AC32B10743
:1000B000D9F712E0ACE2B2E001C01D92A035B10761
:1000C000E1F70E9443050C940D0A0C940000E1999D
:1000D000FECF9FBB8EBB6DBBE29AE19A089587E885
:1000E00093E19BBD8ABD1FBC88E08EBD8EB582604A
:1000F0008EBD87B7806187BF089593E59DB998B39A
:100100009F7098BBC0988FB9779BFECFC09A48B3B9
:1001100027E030E0261B310981E090E002C0880F23
:10012000991F2A95E2F7482B48BB089515BA8FEF1F
:1001300084BB11BA82BB82B9199888BB97B387BBBD
:10014000089580B3E7E8F3E13197F1F700C00000CC
:1001500090B3891709F012C18F3E09F448C0803F5F
:1001600040F48F3B21F18F3DA1F18F3709F003C19E
:1001700010C08B3F09F457C08C3F20F4873F09F033
:10018000FAC043C08D3F09F4A4C08E3F09F0F3C00C
:1001900058C08091360290913702019662E070E07B
:1001A0000E94AF099093370280933602E4C0809199
:1001B0003A0290913B02019663E070E00E94AF0921
:1001C00090933B0280933A021092390210923802C7
:1001D000D2C08091220190912301019663E070E0EA
:1001E0000E94AF099093230180932201C4C08091A3
:1001F000340290913502019663E070E00E94AF09ED
:100200009093350280933402B6C08091160190918C
:100210001701019665E070E00E94AF099093170105
:1002200080931601A8C08091180190911901019640
:1002300065E070E00E94AF09909319018093180166
:100240009AC08091180190911901009751F4809102
:100250000A0190910B01019790930B0180930A0181
:1002600019C08130910551F480910C0190910D01DC
:10027000019790930D0180930C010CC08230910581
:1002800049F480910E0190910F01019790930F0115
:1002900080930E018091160190911701009731F41F
:1002A0008091100190911101019747C08130910513
:1002B00031F4809112019091130101974BC082306B
:1002C000910509F058C08091140190911501019792
:1002D0004EC08091180190911901009751F48091BE
:1002E0000A0190910B01019690930B0180930A01F2
:1002F00019C08130910551F480910C0190910D014C
:10030000019690930D0180930C010CC082309105F1
:1003100049F480910E0190910F01019690930F0185
:1003200080930E018091160190911701009751F46E
:100330008091100190911101019690931101809389
:10034000100119C08130910551F4809112019091F2
:100350001301019690931301809312010CC0823017
:10036000910549F4809114019091150101969093A3
:1003700015018093140180B38F3FE9F708951F9210
:100380000F920FB60F920BB60F9211242F933F933B
:100390004F935F936F937F938F939F93AF93BF938D
:1003A000CF93DF93EF93FF9320913F022F5F209332
:1003B0003F0240913E024F5F40933E0280911C01FC
:1003C00090911D01019664E070E00E94AF09909346
:1003D0001D0180931C01243670F080911A019091C8
:1003E0001B0121E030E08227932790931B0180932B
:1003F0001A0110923F02483CD8F110923E028091BF
:100400003602909137028130910591F5C7E6D0E030
:1004100060910A0170910B0184E690E0FE0109955C
:1004200060910C0170910D0185E690E0FE01099547
:1004300060910E0170910F0186E690E0FE01099532
:10044000609110017091110187E690E0FE0109951D
:10045000609112017091130188E690E0FE01099508
:10046000609114017091150189E690E0FE010995F3
:100470008091300290913102843691050CF4AFC026
:1004800010923102109230028091480290914902FC
:1004900090934D0280934C02019790934902809370
:1004A0004802209146023091470230934502209342
:1004B00044022150304030934702209346022AE004
:1004C00025BB97FF43C080914202909143029093D5
:1004D0004D0280934C020197909343028093420215
:1004E00025B3285F25BB97FF31C080914A029091C8
:1004F0004B0290934D0280934C02019790934B02D4
:1005000080934A0225B3205F25BB97FF1FC08091CF
:100510000A0190910B019093490280934802209127
:100520000C0130910D01309343022093420220913F
:100530000E0130910F0130934B0220934A029093A9
:100540004D0280934C0285B3885185BB8091460251
:100550009091470297FF43C080914E0290914F02C5
:100560009093450280934402019790934F028093A9
:100570004E0225B32E5F25BB97FF31C0809140020C
:100580009091410290934502809344020197909389
:1005900041028093400225B3235025BB97FF1FC023
:1005A000809112019091130190934702809346022B
:1005B00020911001309111013093410220934002AB
:1005C000209114013091150130934F0220934E0277
:1005D000909345028093440285B38F5F85BB8091E1
:1005E000180190911901009709F040C08FEF9FEF1B
:1005F00090931701809316019093350280933402F3
:1006000088E085BB80911A0190911B018130910592
:1006100079F480910A0190910B016AE070E00E94E8
:10062000AF0980509F4FFC01808180932D0202C052
:1006300010922D0280910A0190910B016AE070E006
:100640000E94AF0960507F4FFB01808180932C0294
:1006500010922E0210922F0260911C0170911D01C8
:10066000FB01E45DFD4F80810E947D0080911801B7
:10067000909119018130910509F040C08FEF9FEFF3
:100680009093170180931601909335028093340262
:1006900080E185BB80911A0190911B018130910509
:1006A00079F480910C0190910D016AE070E00E9454
:1006B000AF0980509F4FFC01808180932D0202C0C2
:1006C00010922D0280910C0190910D016AE070E072
:1006D0000E94AF0960507F4FFB01808180932C0204
:1006E00010922E0210922F0260911C0170911D0138
:1006F000FB01E45DFD4F80810E947D008091180127
:10070000909119018230910509F040C08FEF9FEF61
:1007100090931701809316019093350280933402D1
:1007200080E285BB80911A0190911B018130910577
:1007300079F480910E0190910F016AE070E00E94BF
:10074000AF0980509F4FFC01808180932D0202C031
:1007500010922D0280910E0190910F016AE070E0DD
:100760000E94AF0960507F4FFB01808180932C0273
:1007700010922E0210922F0260911C0170911D01A7
:10078000FB01E45DFD4F80810E947D008091180196
:100790009091190183309105F1F48FEF9FEF9093C1
:1007A000170180931601909335028093340215BA95
:1007B00083E280932D02ECE2F2E080932C028283AC
:1007C000838360911C0170911D01FB01E45DFD4F6D
:1007D00080810E947D008091160190911701009701
:1007E00009F040C08FEF9FEF90931901809318019B
:1007F000909335028093340281E085BB80911A0189
:1008000090911B018130910579F4809110019091B4
:1008100011016AE070E00E94AF0980509F4FFC0117
:10082000808180932F0202C010922F0280911001CC
:10083000909111016AE070E00E94AF0960507F4F13
:10084000FB01808180932E0210922D0210922C02C7
:1008500060911C0170911D01FB01E45DFD4F8081E1
:100860000E947D00809116019091170181309105C1
:1008700009F040C08FEF9FEF90931901809318010A
:10088000909335028093340282E085BB80911A01F7
:1008900090911B018130910579F480911201909122
:1008A00013016AE070E00E94AF0980509F4FFC0185
:1008B000808180932F0202C010922F02809112013A
:1008C000909113016AE070E00E94AF0960507F4F81
:1008D000FB01808180932E0210922D0210922C0237
:1008E00060911C0170911D01FB01E45DFD4F808151
:1008F0000E947D0080911601909117018230910530
:1009000009F040C08FEF9FEF909319018093180179
:10091000909335028093340284E085BB80911A0164
:1009200090911B018130910579F48091140190918F
:1009300015016AE070E00E94AF0980509F4FFC01F2
:10094000808180932F0202C010922F0280911401A7
:10095000909115016AE070E00E94AF0960507F4FEE
:10096000FB01808180932E0210922D0210922C02A6
:1009700060911C0170911D01FB01E45DFD4F8081C0
:100980000E947D008091160190911701833091059E
:10099000F1F48FEF9FEF90931901809318019093DA
:1009A00035028093340215BA83E280932D02ECE283
:1009B000F2E080932C028283838360911C0170910A
:1009C0001D01FB01E45DFD4F80810E947D0080914F
:1009D0003602909137028130910511F58FEF9FEF2C
:1009E0009093190180931801909317018093160139
:1009F000909323018093220115BA83E280932D0204
:100A0000ECE2F2E080932C028283838360911C01EC
:100A100070911D01FB01E45DFD4F80810E947D000E
:100A200060911C0170911D01FB01E45DFD4F80810F
:100A30000E947D00FF91EF91DF91CF91BF91AF9127
:100A40009F918F917F916F915F914F913F912F91E6
:100A50000F900BBE0F900FBE0F901F90189580E463
:100A600087B983EC86B9349BFECF24B135B1349875
:100A70003798C9010895E199FECF9FBB8EBBE09ADC
:100A80008DB390E00895CF92DF92EF92FF920F9393
:100A90001F93CF93DF9310922F0210922E02109289
:100AA0002D0210922C020E9496000E946F007894F2
:100AB0008091360290913702009709F042C08FEF83
:100AC0009FEF9093210180932001909319018093CF
:100AD000180190931701809316019093230180933E
:100AE000220184E690E00E943B0590930B018093E5
:100AF0000A0185E690E00E943B0590930D018093EA
:100B00000C0186E690E00E943B0590930F018093D4
:100B10000E0187E690E00E943B05909311018093BF
:100B2000100188E690E00E943B05909313018093AA
:100B3000120189E690E00E943B0590931501809395
:100B4000140180910A0190910B01909349028093C6
:100B5000480280910C0190910D0190934302809383
:100B6000420280910E0190910F0190934B0280936D
:100B70004A0280911001909111019093410280935B
:100B8000400280911201909113019093470280934B
:100B90004602809114019091150190934F02809329
:100BA0004E02CFEFDFEF34E2F32E0AE010E029E04F
:100BB000E22E91E1D92E8AE0C82E0E94A10083ED99
:100BC00090E30197F1F700C000000E942F052091EB
:100BD0003402309135022115310509F05CC0D09303
:100BE0002101C0932001D0932301C0932201BC01B5
:100BF00080E090E00E94A6072DEC3CEC4CE453E42E
:100C00000E94A6060E945407633071058105910574
:100C100084F18091300290913102019690933102DB
:100C2000809330028091440290914502B8010E9465
:100C3000AF09FC01E050FF4F808180932F0260508C
:100C40007F4FFB01808180932E0280914C02909116
:100C50004D02B8010E94AF09FC01E050FF4F8081B6
:100C600080932D0260507F4FFB01808180932C0286
:100C700012C010922F0210922E0210922D0210928A
:100C80002C0280911A0190911B018130910511F481
:100C9000F5BA01C015BA80913402909135028130C5
:100CA0009105D1F4D0932101C0932001D093230169
:100CB000C093220110922F0210922E0210922D0248
:100CC00010922C0280911A0190911B0181309105A4
:100CD00011F4F5BA01C015BA809134029091350231
:100CE0008230910561F5D0931901C0931801D0931A
:100CF0001701C0931601D0932101C09320011092D7
:100D00002F0210922E0210922D0210922C02E5BAA0
:100D10008091220190912301009709F4E5BA809116
:100D20002201909123018130910509F4C5BA809187
:100D30002201909123018230910509F4D5BA83EC08
:100D400099E00197F1F700C0000037CFA8E1B0E0CB
:100D5000ECEAF6E00C94DE0969837A838B839C834A
:100D60002D833E834F8358878E01075F1F4FCE012F
:100D70000196B8010E94460981E1E82EF12CEC0EA3
:100D8000FD1ECE010596B7010E9446099985923055
:100D900008F483C08989823008F47BC02A853A89A7
:100DA00023272A87943011F0923021F4981709F004
:100DB0006CC071C0843039F41D861E861F86188A67
:100DC0001C861B866AC0823019F484E0898765C05E
:100DD0008B859C852B893C89821B930B9C878B87F9
:100DE0002D853E854F855889ED88FE880F89188DA1
:100DF0002E153F054007510738F4220F331F441FBB
:100E0000551F01979C878B876FE170E0A12CB12C57
:100E1000C12CA0E4DA2E80E090E0DC012E153F0525
:100E20004007510740F08A299B29AC29BD292E197A
:100E30003F09400B510BD694C794B794A794220F47
:100E4000331F441F551F6150704041F76FE7E62E76
:100E5000F12C012D112DE822F9220A231B2360E435
:100E6000E616F1040105110561F487FD0AC021159C
:100E700031054105510529F0805C9F4FAF4FBF4FB1
:100E800080788D879E87AF87B88B8E01075F1F4F55
:100E900004C0870102C004E211E0C8010E94780882
:100EA0006896EAE00C94FA09ACE0B0E0EAE5F7E015
:100EB0000C94E60969837A838B839C83CE01019627
:100EC000BE016B5F7F4F0E9446098D81823081F1A8
:100ED000823070F1843021F48E81882369F10AC058
:100EE0002F81388537FD24C06E812F3131053CF0CC
:100EF000662311F120E030E040E050E821C08EE1AF
:100F000090E0821B930B29853A854B855C8504C054
:100F100056954795379527958A95D2F7662381F0A0
:100F200050954095309521953F4F4F4F5F4F08C0EA
:100F300020E030E0A90104C02FEF3FEF4FEF5FE763
:100F4000B901CA012C96E2E00C94020AA8E0B0E0D4
:100F5000ECEAF7E00C94E0097B018C011A82611540
:100F600071058105910519F482E089835FC083E0F2
:100F700089838EE1C82ED12CDC82CB82ED82FE8269
:100F80000F831887C801B7010E941E08FC01319722
:100F9000F7FF3AC0AA27BB27AE1BBF0B21E030E00A
:100FA00040E050E00A2E04C0220F331F441F551F9B
:100FB0000A94D2F721503040404050402E213F212A
:100FC0004023512361E070E080E090E0211531057D
:100FD0004105510519F460E070E0CB0104C016959D
:100FE0000795F794E794AA95D2F7E62AF72A082BF3
:100FF000192BED82FE820F8318878EE190E08E1B05
:101000009F0B9C838B8312C0309781F00E2E04C0FF
:10101000EE0CFF1C001F111F0A94D2F7ED82FE8216
:101020000F831887CE1ADF0ADC82CB82CE010196AD
:101030000E9478082896E8E00C94FC09AF92BF92D1
:10104000CF92DF92EF92FF920F931F937B018C015F
:1010500080E0E81680E0F80681E0080780E01807E5
:1010600058F4EFEFEE16F1040105110509F090F4C4
:1010700080E090E0DC0117C0F0E0EF16F0E0FF0642
:10108000F0E00F07F1E01F0750F480E190E0A0E0EE
:10109000B0E009C088E090E0A0E0B0E004C088E1E2
:1010A00090E0A0E0B0E020E230E040E050E0281B1B
:1010B000390B4A0B5B0B5701680104C0D694C794E7
:1010C000B794A7948A95D2F7D601C501845D9E4F47
:1010D000FC018081281B310941095109C9011F9177
:1010E0000F91FF90EF90DF90CF90BF90AF90089559
:1010F000EF92FF920F931F93CF93DF93FC01248114
:1011000035814681578161818081823020F4406140
:10111000EFEFF0E0A3C0843009F49BC0823009F403
:1011200092C0211531054105510509F48FC0028097
:10113000F381E02D8FEFE238F8070CF05AC0C2E8D7
:10114000DFEFCE1BDF0BCA31D1056CF579018A01C7
:101150000C2E04C016950795F794E7940A94D2F7DD
:1011600081E090E0A0E0B0E00C2E04C0880F991F51
:10117000AA1FBB1F0A94D2F70197A109B1098223C4
:101180009323A423B52321E030E040E050E0009712
:10119000A105B10519F420E030E0A9012E293F296D
:1011A000402B512B03C020E030E0A901DA01C90136
:1011B0008F779070A070B07080349105A105B10553
:1011C00039F427FF09C0205C3F4F4F4F5F4F04C0E9
:1011D000215C3F4F4F4F5F4FE1E0F0E0203080E077
:1011E000380780E0480780E4580728F5E0E0F0E0A1
:1011F00022C0E038F1056CF5E158FF4FDA01C90172
:101200008F779070A070B07080349105A105B10502
:1012100039F427FF09C0205C3F4F4F4F5F4F04C098
:10122000215C3F4F4F4F5F4F57FF05C05695479585
:1012300037952795319687E05695479537952795A9
:101240008A95D1F70BC0E0E0F0E005C0E0E0F0E007
:1012500005C0EFEFF0E020E030E0A9018E2F879588
:1012600088278795942F9F77679566276795E695DA
:10127000E22EA92FA82BFE2FF62B622F732F8A2F79
:101280009F2FCDB7DEB7E6E00C94FE09DC01FB0131
:101290002C9111963C91119712968C911297482F90
:1012A0004F7750E0982F991F9927991F13966C91AB
:1012B0001397862F880F892B90E0661F6627661F7D
:1012C0006183009739F5211531054105510511F468
:1012D00082E029C082E89FEF9383828367E0220F38
:1012E000331F441F551F6A95D1F783E0808309C0DF
:1012F000220F331F441F551F8281938101979383CF
:101300008283203080E0380780E0480780E4580777
:1013100078F320C08F3F910579F4211531054105FF
:10132000510519F484E08083089544FF03C081E0EF
:10133000808310C010820EC08F57904093838283A9
:1013400083E0808387E0220F331F441F551F8A9557
:10135000D1F750642483358346835783089597FBE0
:10136000092E07260AD077FD04D00CD006D0002025
:101370001AF4709561957F4F0895F6F790958195D1
:101380009F4F0895AA1BBB1B51E107C0AA1FBB1F9B
:10139000A617B70710F0A61BB70B881F991F5A9501
:1013A000A9F780959095BC01CD0108952F923F92A9
:1013B0004F925F926F927F928F929F92AF92BF9265
:1013C000CF92DF92EF92FF920F931F93CF93DF9311
:1013D000CDB7DEB7CA1BDB0B0FB6F894DEBF0FBE6E
:1013E000CDBF09942A88398848885F846E847D84BB
:1013F0008C849B84AA84B984C884DF80EE80FD80BD
:101400000C811B81AA81B981CE0FD11D0FB6F89432
:0E141000DEBF0FBECDBFED010895F894FFCFF3
:10141E003F065B4F666D7D077F6F0A000600040076
:10142E000A0007000300FFFFFFFF0100FFFFFFFFA1
:10143E00FFFFFFFF0000000000000000000102029D
:10144E00030303030404040404040404050505054E
:10145E00050505050505050505050505060606062A
:10146E00060606060606060606060606060606060E
:10147E0006060606060606060606060607070707FA
:10148E0007070707070707070707070707070707DE
:10149E0007070707070707070707070707070707CE
:1014AE0007070707070707070707070707070707BE
:1014BE0007070707070707070707070708080808AA
:1014CE00080808080808080808080808080808088E
:1014DE00080808080808080808080808080808087E
:1014EE00080808080808080808080808080808086E
:1014FE00080808080808080808080808080808085E
:10150E00080808080808080808080808080808084D
:10151E00080808080808080808080808080808083D
:10152E00080808080808080808080808080808082D
:0C153E0008080808080808080808080841
:00000001FF
